{
  "contractName": "RecordContract",
  "abi": [
    {
      "inputs": [],
      "payable": false,
      "stateMutability": "nonpayable",
      "type": "constructor"
    },
    {
      "constant": true,
      "inputs": [
        {
          "internalType": "address",
          "name": "",
          "type": "address"
        }
      ],
      "name": "agExistList",
      "outputs": [
        {
          "internalType": "bool",
          "name": "",
          "type": "bool"
        }
      ],
      "payable": false,
      "stateMutability": "view",
      "type": "function"
    },
    {
      "constant": true,
      "inputs": [
        {
          "internalType": "uint256",
          "name": "",
          "type": "uint256"
        }
      ],
      "name": "agList",
      "outputs": [
        {
          "internalType": "address",
          "name": "",
          "type": "address"
        }
      ],
      "payable": false,
      "stateMutability": "view",
      "type": "function"
    },
    {
      "constant": true,
      "inputs": [
        {
          "internalType": "address",
          "name": "",
          "type": "address"
        }
      ],
      "name": "agStructList",
      "outputs": [
        {
          "internalType": "address",
          "name": "selfAddress",
          "type": "address"
        },
        {
          "internalType": "string",
          "name": "domain",
          "type": "string"
        }
      ],
      "payable": false,
      "stateMutability": "view",
      "type": "function"
    },
    {
      "constant": true,
      "inputs": [],
      "name": "owner",
      "outputs": [
        {
          "internalType": "address",
          "name": "",
          "type": "address"
        }
      ],
      "payable": false,
      "stateMutability": "view",
      "type": "function"
    },
    {
      "constant": true,
      "inputs": [
        {
          "internalType": "address",
          "name": "_AG",
          "type": "address"
        }
      ],
      "name": "isAGExist",
      "outputs": [
        {
          "internalType": "bool",
          "name": "",
          "type": "bool"
        }
      ],
      "payable": false,
      "stateMutability": "view",
      "type": "function"
    },
    {
      "constant": false,
      "inputs": [
        {
          "internalType": "address",
          "name": "_AG",
          "type": "address"
        },
        {
          "internalType": "string",
          "name": "domain",
          "type": "string"
        }
      ],
      "name": "registerAG",
      "outputs": [
        {
          "internalType": "bool",
          "name": "",
          "type": "bool"
        }
      ],
      "payable": false,
      "stateMutability": "nonpayable",
      "type": "function"
    },
    {
      "constant": false,
      "inputs": [
        {
          "internalType": "address",
          "name": "client",
          "type": "address"
        }
      ],
      "name": "registerClient",
      "outputs": [
        {
          "internalType": "bool",
          "name": "",
          "type": "bool"
        }
      ],
      "payable": false,
      "stateMutability": "nonpayable",
      "type": "function"
    },
    {
      "constant": true,
      "inputs": [
        {
          "internalType": "address",
          "name": "client",
          "type": "address"
        }
      ],
      "name": "findAGviaAddress",
      "outputs": [
        {
          "internalType": "address",
          "name": "",
          "type": "address"
        }
      ],
      "payable": false,
      "stateMutability": "view",
      "type": "function"
    },
    {
      "constant": false,
      "inputs": [
        {
          "internalType": "address",
          "name": "client",
          "type": "address"
        }
      ],
      "name": "removeClient",
      "outputs": [
        {
          "internalType": "bool",
          "name": "",
          "type": "bool"
        }
      ],
      "payable": false,
      "stateMutability": "nonpayable",
      "type": "function"
    }
  ],
  "bytecode": "0x608060405234801561001057600080fd5b50336000806101000a81548173ffffffffffffffffffffffffffffffffffffffff021916908373ffffffffffffffffffffffffffffffffffffffff1602179055506111ee806100606000396000f3fe608060405234801561001057600080fd5b50600436106100935760003560e01c8063679793481161006657806367979348146102c75780636c5304c5146103b75780638d4de40b146104135780638da5cb5b146104815780639089f616146104cb57610093565b806342a67b7f146100985780634312a7a5146100f45780635b1dbede146101505780635e05012a146101d4575b600080fd5b6100da600480360360208110156100ae57600080fd5b81019080803573ffffffffffffffffffffffffffffffffffffffff169060200190929190505050610527565b604051808215151515815260200191505060405180910390f35b6101366004803603602081101561010a57600080fd5b81019080803573ffffffffffffffffffffffffffffffffffffffff1690602001909291905050506106ed565b604051808215151515815260200191505060405180910390f35b6101926004803603602081101561016657600080fd5b81019080803573ffffffffffffffffffffffffffffffffffffffff169060200190929190505050610743565b604051808273ffffffffffffffffffffffffffffffffffffffff1673ffffffffffffffffffffffffffffffffffffffff16815260200191505060405180910390f35b6102ad600480360360408110156101ea57600080fd5b81019080803573ffffffffffffffffffffffffffffffffffffffff1690602001909291908035906020019064010000000081111561022757600080fd5b82018360208201111561023957600080fd5b8035906020019184600183028401116401000000008311171561025b57600080fd5b91908080601f016020809104026020016040519081016040528093929190818152602001838380828437600081840152601f19601f820116905080830192505050505050509192919290505050610879565b604051808215151515815260200191505060405180910390f35b610309600480360360208110156102dd57600080fd5b81019080803573ffffffffffffffffffffffffffffffffffffffff169060200190929190505050610add565b604051808373ffffffffffffffffffffffffffffffffffffffff1673ffffffffffffffffffffffffffffffffffffffff16815260200180602001828103825283818151815260200191508051906020019080838360005b8381101561037b578082015181840152602081019050610360565b50505050905090810190601f1680156103a85780820380516001836020036101000a031916815260200191505b50935050505060405180910390f35b6103f9600480360360208110156103cd57600080fd5b81019080803573ffffffffffffffffffffffffffffffffffffffff169060200190929190505050610bb9565b604051808215151515815260200191505060405180910390f35b61043f6004803603602081101561042957600080fd5b8101908080359060200190929190505050610bd9565b604051808273ffffffffffffffffffffffffffffffffffffffff1673ffffffffffffffffffffffffffffffffffffffff16815260200191505060405180910390f35b610489610c15565b604051808273ffffffffffffffffffffffffffffffffffffffff1673ffffffffffffffffffffffffffffffffffffffff16815260200191505060405180910390f35b61050d600480360360208110156104e157600080fd5b81019080803573ffffffffffffffffffffffffffffffffffffffff169060200190929190505050610c3a565b604051808215151515815260200191505060405180910390f35b600033610533816106ed565b6105a5576040517f08c379a00000000000000000000000000000000000000000000000000000000081526004018080602001828103825260188152602001807f4147206861736e2774207265676973746572656420796574000000000000000081525060200191505060405180910390fd5b6001600260003373ffffffffffffffffffffffffffffffffffffffff1673ffffffffffffffffffffffffffffffffffffffff16815260200190815260200160002060000160008573ffffffffffffffffffffffffffffffffffffffff1673ffffffffffffffffffffffffffffffffffffffff16815260200190815260200160002060006101000a81548160ff021916908315150217905550600260003373ffffffffffffffffffffffffffffffffffffffff1673ffffffffffffffffffffffffffffffffffffffff1681526020019081526020016000206001018390806001815401808255809150509060018203906000526020600020016000909192909190916101000a81548173ffffffffffffffffffffffffffffffffffffffff021916908373ffffffffffffffffffffffffffffffffffffffff160217905550506001915050919050565b6000600360008373ffffffffffffffffffffffffffffffffffffffff1673ffffffffffffffffffffffffffffffffffffffff16815260200190815260200160002060009054906101000a900460ff169050919050565b600080600090505b60018054905081101561086e57600260006001838154811061076957fe5b9060005260206000200160009054906101000a900473ffffffffffffffffffffffffffffffffffffffff1673ffffffffffffffffffffffffffffffffffffffff1673ffffffffffffffffffffffffffffffffffffffff16815260200190815260200160002060000160008473ffffffffffffffffffffffffffffffffffffffff1673ffffffffffffffffffffffffffffffffffffffff16815260200190815260200160002060009054906101000a900460ff1615610861576001818154811061082e57fe5b9060005260206000200160009054906101000a900473ffffffffffffffffffffffffffffffffffffffff16915050610874565b808060010191505061074b565b50600090505b919050565b60003373ffffffffffffffffffffffffffffffffffffffff166000809054906101000a900473ffffffffffffffffffffffffffffffffffffffff1673ffffffffffffffffffffffffffffffffffffffff161461093d576040517f08c379a00000000000000000000000000000000000000000000000000000000081526004018080602001828103825260178152602001807f43412061757468656e69636174696f6e206661696c656400000000000000000081525060200191505060405180910390fd5b82600260008573ffffffffffffffffffffffffffffffffffffffff1673ffffffffffffffffffffffffffffffffffffffff16815260200190815260200160002060020160006101000a81548173ffffffffffffffffffffffffffffffffffffffff021916908373ffffffffffffffffffffffffffffffffffffffff16021790555081600260008573ffffffffffffffffffffffffffffffffffffffff1673ffffffffffffffffffffffffffffffffffffffff1681526020019081526020016000206003019080519060200190610a14929190611114565b5060018390806001815401808255809150509060018203906000526020600020016000909192909190916101000a81548173ffffffffffffffffffffffffffffffffffffffff021916908373ffffffffffffffffffffffffffffffffffffffff160217905550506001600360008573ffffffffffffffffffffffffffffffffffffffff1673ffffffffffffffffffffffffffffffffffffffff16815260200190815260200160002060006101000a81548160ff0219169083151502179055506001905092915050565b60026020528060005260406000206000915090508060020160009054906101000a900473ffffffffffffffffffffffffffffffffffffffff1690806003018054600181600116156101000203166002900480601f016020809104026020016040519081016040528092919081815260200182805460018160011615610100020316600290048015610baf5780601f10610b8457610100808354040283529160200191610baf565b820191906000526020600020905b815481529060010190602001808311610b9257829003601f168201915b5050505050905082565b60036020528060005260406000206000915054906101000a900460ff1681565b60018181548110610be657fe5b906000526020600020016000915054906101000a900473ffffffffffffffffffffffffffffffffffffffff1681565b6000809054906101000a900473ffffffffffffffffffffffffffffffffffffffff1681565b600033610c46816106ed565b610cb8576040517f08c379a00000000000000000000000000000000000000000000000000000000081526004018080602001828103825260188152602001807f4147206861736e2774207265676973746572656420796574000000000000000081525060200191505060405180910390fd5b6000600260003373ffffffffffffffffffffffffffffffffffffffff1673ffffffffffffffffffffffffffffffffffffffff16815260200190815260200160002060000160008573ffffffffffffffffffffffffffffffffffffffff1673ffffffffffffffffffffffffffffffffffffffff16815260200190815260200160002060006101000a81548160ff0219169083151502179055506000600260003373ffffffffffffffffffffffffffffffffffffffff1673ffffffffffffffffffffffffffffffffffffffff16815260200190815260200160002060010180549050905060005b81811015611088578473ffffffffffffffffffffffffffffffffffffffff16600260003373ffffffffffffffffffffffffffffffffffffffff1673ffffffffffffffffffffffffffffffffffffffff1681526020019081526020016000206001018281548110610e0957fe5b9060005260206000200160009054906101000a900473ffffffffffffffffffffffffffffffffffffffff1673ffffffffffffffffffffffffffffffffffffffff16141561107b576000600260003373ffffffffffffffffffffffffffffffffffffffff1673ffffffffffffffffffffffffffffffffffffffff1681526020019081526020016000206001018281548110610e9f57fe5b9060005260206000200160009054906101000a900473ffffffffffffffffffffffffffffffffffffffff169050600260003373ffffffffffffffffffffffffffffffffffffffff1673ffffffffffffffffffffffffffffffffffffffff1681526020019081526020016000206001016001840381548110610f1c57fe5b9060005260206000200160009054906101000a900473ffffffffffffffffffffffffffffffffffffffff16600260003373ffffffffffffffffffffffffffffffffffffffff1673ffffffffffffffffffffffffffffffffffffffff1681526020019081526020016000206001018381548110610f9457fe5b9060005260206000200160006101000a81548173ffffffffffffffffffffffffffffffffffffffff021916908373ffffffffffffffffffffffffffffffffffffffff16021790555080600260003373ffffffffffffffffffffffffffffffffffffffff1673ffffffffffffffffffffffffffffffffffffffff168152602001908152602001600020600101600185038154811061102d57fe5b9060005260206000200160006101000a81548173ffffffffffffffffffffffffffffffffffffffff021916908373ffffffffffffffffffffffffffffffffffffffff16021790555050611088565b8080600101915050610d9d565b50600260003373ffffffffffffffffffffffffffffffffffffffff1673ffffffffffffffffffffffffffffffffffffffff1681526020019081526020016000206001018054806110d457fe5b6001900381819060005260206000200160006101000a81549073ffffffffffffffffffffffffffffffffffffffff02191690559055600192505050919050565b828054600181600116156101000203166002900490600052602060002090601f016020900481019282601f1061115557805160ff1916838001178555611183565b82800160010185558215611183579182015b82811115611182578251825591602001919060010190611167565b5b5090506111909190611194565b5090565b6111b691905b808211156111b257600081600090555060010161119a565b5090565b9056fea265627a7a723158204165ecac13380425267742bb69b3f60262c75bbacc58254dfb8621862a4d157064736f6c63430005110032",
  "source": "// SPDX-License-Identifier: MIT\npragma solidity <0.6.0;\n\ncontract RecordContract {\n    \n    modifier onlyOwner(){\n        require(owner == msg.sender, \"CA authenication failed\");\n        _;\n    }\n    modifier onlyAG(address _AG){\n        require(isAGExist(_AG), \"AG hasn't registered yet\");\n        _;\n    }\n   \n\n\n    address public owner;\n    address[] public agList; // 記錄所有AG位位址\n    mapping(address=>AG) public agStructList; // 紀錄各個AG資訊\n    mapping(address => bool) public agExistList;  // 紀錄AG是否存在\n     \n\n    constructor() public {\n        owner = msg.sender;\n    }\n    \n    struct AG{\n        mapping(address => bool)clientExistList;\n        address[] clientList;\n        address selfAddress;\n        string domain;\n    }\n    \n    // check if AG exists in CA  \n    function isAGExist(address _AG) public view returns(bool) {\n        return agExistList[_AG];\n    }\n    \n\n    // 登記 AG 由CA負責登記\n    function registerAG(address _AG, string memory domain) public onlyOwner returns(bool){\n        agStructList[_AG].selfAddress = _AG;\n        agStructList[_AG].domain = domain;\n        \n        agList.push(_AG);\n        \n        agExistList[_AG]=true;\n        \n        return true;\n    }\n\n\n    // AG登記Client 由AG自行登記\n    function registerClient(address client) public onlyAG(msg.sender) returns(bool){\n        // \n        agStructList[msg.sender].clientExistList[client] = true;\n        agStructList[msg.sender].clientList.push(client);\n        return true; \n    }\n\n\n    // 透過Client address 找尋 AG， 由發送方的AG執行\n    function findAGviaAddress(address client) public view returns(address) {\n        // \n        for(uint i=0;i<agList.length;i++) {\n            if(agStructList[agList[i]].clientExistList[client])\n                return agList[i];\n        }\n        return address(0);\n    }\n    \n    function removeClient(address client) public onlyAG(msg.sender) returns(bool){\n        // 設定為否\n        agStructList[msg.sender].clientExistList[client] = false;\n\n        uint arrayLen = agStructList[msg.sender].clientList.length;\n        // 找此用戶在陣列中的index\n        // 把最後一項與曜刪除的那一項對調後再做pop\n        for (uint i; i<arrayLen; i++){\n            if (agStructList[msg.sender].clientList[i] == client){\n                address tmp = agStructList[msg.sender].clientList[i];\n                agStructList[msg.sender].clientList[i] = agStructList[msg.sender].clientList[arrayLen-1];\n                agStructList[msg.sender].clientList[arrayLen-1] = tmp;\n                break;\n            }\n        }\n        agStructList[msg.sender].clientList.pop();\n\n\n        return true;\n    }\n}\n",
  "sourcePath": "/home/james/gethLab/Recordcontract/contracts/RecordContract.sol",
  "compiler": {
    "name": "solc",
    "version": "0.5.17+commit.d19bba13.Emscripten.clang"
  },
  "schemaVersion": "3.4.3",
  "updatedAt": "2022-01-26T17:24:44.307Z",
  "devdoc": {
    "methods": {}
  },
  "userdoc": {
    "methods": {}
  }
}