{
  "contractName": "RecordContract",
  "abi": [
    {
      "inputs": [],
      "payable": false,
      "stateMutability": "nonpayable",
      "type": "constructor"
    },
    {
      "constant": true,
      "inputs": [
        {
          "internalType": "address",
          "name": "",
          "type": "address"
        }
      ],
      "name": "agExistList",
      "outputs": [
        {
          "internalType": "bool",
          "name": "",
          "type": "bool"
        }
      ],
      "payable": false,
      "stateMutability": "view",
      "type": "function"
    },
    {
      "constant": true,
      "inputs": [
        {
          "internalType": "uint256",
          "name": "",
          "type": "uint256"
        }
      ],
      "name": "agList",
      "outputs": [
        {
          "internalType": "address",
          "name": "",
          "type": "address"
        }
      ],
      "payable": false,
      "stateMutability": "view",
      "type": "function"
    },
    {
      "constant": true,
      "inputs": [
        {
          "internalType": "address",
          "name": "",
          "type": "address"
        }
      ],
      "name": "agStructList",
      "outputs": [
        {
          "internalType": "address",
          "name": "selfAddress",
          "type": "address"
        },
        {
          "internalType": "string",
          "name": "domain",
          "type": "string"
        },
        {
          "internalType": "uint256",
          "name": "Knx",
          "type": "uint256"
        },
        {
          "internalType": "uint256",
          "name": "Kny",
          "type": "uint256"
        }
      ],
      "payable": false,
      "stateMutability": "view",
      "type": "function"
    },
    {
      "constant": true,
      "inputs": [],
      "name": "owner",
      "outputs": [
        {
          "internalType": "address",
          "name": "",
          "type": "address"
        }
      ],
      "payable": false,
      "stateMutability": "view",
      "type": "function"
    },
    {
      "constant": true,
      "inputs": [
        {
          "internalType": "address",
          "name": "_AG",
          "type": "address"
        }
      ],
      "name": "isAGExist",
      "outputs": [
        {
          "internalType": "bool",
          "name": "",
          "type": "bool"
        }
      ],
      "payable": false,
      "stateMutability": "view",
      "type": "function"
    },
    {
      "constant": true,
      "inputs": [
        {
          "internalType": "address",
          "name": "_AG",
          "type": "address"
        }
      ],
      "name": "getAGPublicKey",
      "outputs": [
        {
          "internalType": "uint256",
          "name": "",
          "type": "uint256"
        },
        {
          "internalType": "uint256",
          "name": "",
          "type": "uint256"
        }
      ],
      "payable": false,
      "stateMutability": "view",
      "type": "function"
    },
    {
      "constant": false,
      "inputs": [
        {
          "internalType": "address",
          "name": "_AG",
          "type": "address"
        },
        {
          "internalType": "string",
          "name": "domain",
          "type": "string"
        },
        {
          "internalType": "uint256",
          "name": "_Knx",
          "type": "uint256"
        },
        {
          "internalType": "uint256",
          "name": "_Kny",
          "type": "uint256"
        }
      ],
      "name": "registerAG",
      "outputs": [
        {
          "internalType": "bool",
          "name": "",
          "type": "bool"
        }
      ],
      "payable": false,
      "stateMutability": "nonpayable",
      "type": "function"
    },
    {
      "constant": false,
      "inputs": [
        {
          "internalType": "address",
          "name": "client",
          "type": "address"
        }
      ],
      "name": "registerClient",
      "outputs": [
        {
          "internalType": "bool",
          "name": "",
          "type": "bool"
        }
      ],
      "payable": false,
      "stateMutability": "nonpayable",
      "type": "function"
    },
    {
      "constant": true,
      "inputs": [
        {
          "internalType": "address",
          "name": "client",
          "type": "address"
        }
      ],
      "name": "findAGviaAddress",
      "outputs": [
        {
          "internalType": "address",
          "name": "",
          "type": "address"
        }
      ],
      "payable": false,
      "stateMutability": "view",
      "type": "function"
    },
    {
      "constant": false,
      "inputs": [
        {
          "internalType": "address",
          "name": "client",
          "type": "address"
        }
      ],
      "name": "removeClient",
      "outputs": [
        {
          "internalType": "bool",
          "name": "",
          "type": "bool"
        }
      ],
      "payable": false,
      "stateMutability": "nonpayable",
      "type": "function"
    }
  ],
  "bytecode": "0x608060405234801561001057600080fd5b50336000806101000a81548173ffffffffffffffffffffffffffffffffffffffff021916908373ffffffffffffffffffffffffffffffffffffffff1602179055506113a8806100606000396000f3fe608060405234801561001057600080fd5b506004361061009e5760003560e01c80636c5304c5116100665780636c5304c5146103e45780638d4de40b146104405780638da5cb5b146104ae5780639089f616146104f85780639b0e5eb9146105545761009e565b806342a67b7f146100a35780634312a7a5146100ff5780634a856db51461015b5780635b1dbede1461026257806367979348146102e6575b600080fd5b6100e5600480360360208110156100b957600080fd5b81019080803573ffffffffffffffffffffffffffffffffffffffff1690602001909291905050506105b3565b604051808215151515815260200191505060405180910390f35b6101416004803603602081101561011557600080fd5b81019080803573ffffffffffffffffffffffffffffffffffffffff169060200190929190505050610779565b604051808215151515815260200191505060405180910390f35b6102486004803603608081101561017157600080fd5b81019080803573ffffffffffffffffffffffffffffffffffffffff169060200190929190803590602001906401000000008111156101ae57600080fd5b8201836020820111156101c057600080fd5b803590602001918460018302840111640100000000831117156101e257600080fd5b91908080601f016020809104026020016040519081016040528093929190818152602001838380828437600081840152601f19601f82011690508083019250505050505050919291929080359060200190929190803590602001909291905050506107cf565b604051808215151515815260200191505060405180910390f35b6102a46004803603602081101561027857600080fd5b81019080803573ffffffffffffffffffffffffffffffffffffffff169060200190929190505050610ac3565b604051808273ffffffffffffffffffffffffffffffffffffffff1673ffffffffffffffffffffffffffffffffffffffff16815260200191505060405180910390f35b610328600480360360208110156102fc57600080fd5b81019080803573ffffffffffffffffffffffffffffffffffffffff169060200190929190505050610bf9565b604051808573ffffffffffffffffffffffffffffffffffffffff1673ffffffffffffffffffffffffffffffffffffffff16815260200180602001848152602001838152602001828103825285818151815260200191508051906020019080838360005b838110156103a657808201518184015260208101905061038b565b50505050905090810190601f1680156103d35780820380516001836020036101000a031916815260200191505b509550505050505060405180910390f35b610426600480360360208110156103fa57600080fd5b81019080803573ffffffffffffffffffffffffffffffffffffffff169060200190929190505050610ce1565b604051808215151515815260200191505060405180910390f35b61046c6004803603602081101561045657600080fd5b8101908080359060200190929190505050610d01565b604051808273ffffffffffffffffffffffffffffffffffffffff1673ffffffffffffffffffffffffffffffffffffffff16815260200191505060405180910390f35b6104b6610d3d565b604051808273ffffffffffffffffffffffffffffffffffffffff1673ffffffffffffffffffffffffffffffffffffffff16815260200191505060405180910390f35b61053a6004803603602081101561050e57600080fd5b81019080803573ffffffffffffffffffffffffffffffffffffffff169060200190929190505050610d62565b604051808215151515815260200191505060405180910390f35b6105966004803603602081101561056a57600080fd5b81019080803573ffffffffffffffffffffffffffffffffffffffff16906020019092919050505061123c565b604051808381526020018281526020019250505060405180910390f35b6000336105bf81610779565b610631576040517f08c379a00000000000000000000000000000000000000000000000000000000081526004018080602001828103825260188152602001807f4147206861736e2774207265676973746572656420796574000000000000000081525060200191505060405180910390fd5b6001600260003373ffffffffffffffffffffffffffffffffffffffff1673ffffffffffffffffffffffffffffffffffffffff16815260200190815260200160002060000160008573ffffffffffffffffffffffffffffffffffffffff1673ffffffffffffffffffffffffffffffffffffffff16815260200190815260200160002060006101000a81548160ff021916908315150217905550600260003373ffffffffffffffffffffffffffffffffffffffff1673ffffffffffffffffffffffffffffffffffffffff1681526020019081526020016000206001018390806001815401808255809150509060018203906000526020600020016000909192909190916101000a81548173ffffffffffffffffffffffffffffffffffffffff021916908373ffffffffffffffffffffffffffffffffffffffff160217905550506001915050919050565b6000600360008373ffffffffffffffffffffffffffffffffffffffff1673ffffffffffffffffffffffffffffffffffffffff16815260200190815260200160002060009054906101000a900460ff169050919050565b60003373ffffffffffffffffffffffffffffffffffffffff166000809054906101000a900473ffffffffffffffffffffffffffffffffffffffff1673ffffffffffffffffffffffffffffffffffffffff1614610893576040517f08c379a00000000000000000000000000000000000000000000000000000000081526004018080602001828103825260178152602001807f43412061757468656e69636174696f6e206661696c656400000000000000000081525060200191505060405180910390fd5b84600260008773ffffffffffffffffffffffffffffffffffffffff1673ffffffffffffffffffffffffffffffffffffffff16815260200190815260200160002060020160006101000a81548173ffffffffffffffffffffffffffffffffffffffff021916908373ffffffffffffffffffffffffffffffffffffffff16021790555083600260008773ffffffffffffffffffffffffffffffffffffffff1673ffffffffffffffffffffffffffffffffffffffff168152602001908152602001600020600301908051906020019061096a9291906112ce565b5082600260008773ffffffffffffffffffffffffffffffffffffffff1673ffffffffffffffffffffffffffffffffffffffff1681526020019081526020016000206004018190555081600260008773ffffffffffffffffffffffffffffffffffffffff1673ffffffffffffffffffffffffffffffffffffffff1681526020019081526020016000206005018190555060018590806001815401808255809150509060018203906000526020600020016000909192909190916101000a81548173ffffffffffffffffffffffffffffffffffffffff021916908373ffffffffffffffffffffffffffffffffffffffff160217905550506001600360008773ffffffffffffffffffffffffffffffffffffffff1673ffffffffffffffffffffffffffffffffffffffff16815260200190815260200160002060006101000a81548160ff02191690831515021790555060019050949350505050565b600080600090505b600180549050811015610bee576002600060018381548110610ae957fe5b9060005260206000200160009054906101000a900473ffffffffffffffffffffffffffffffffffffffff1673ffffffffffffffffffffffffffffffffffffffff1673ffffffffffffffffffffffffffffffffffffffff16815260200190815260200160002060000160008473ffffffffffffffffffffffffffffffffffffffff1673ffffffffffffffffffffffffffffffffffffffff16815260200190815260200160002060009054906101000a900460ff1615610be15760018181548110610bae57fe5b9060005260206000200160009054906101000a900473ffffffffffffffffffffffffffffffffffffffff16915050610bf4565b8080600101915050610acb565b50600090505b919050565b60026020528060005260406000206000915090508060020160009054906101000a900473ffffffffffffffffffffffffffffffffffffffff1690806003018054600181600116156101000203166002900480601f016020809104026020016040519081016040528092919081815260200182805460018160011615610100020316600290048015610ccb5780601f10610ca057610100808354040283529160200191610ccb565b820191906000526020600020905b815481529060010190602001808311610cae57829003601f168201915b5050505050908060040154908060050154905084565b60036020528060005260406000206000915054906101000a900460ff1681565b60018181548110610d0e57fe5b906000526020600020016000915054906101000a900473ffffffffffffffffffffffffffffffffffffffff1681565b6000809054906101000a900473ffffffffffffffffffffffffffffffffffffffff1681565b600033610d6e81610779565b610de0576040517f08c379a00000000000000000000000000000000000000000000000000000000081526004018080602001828103825260188152602001807f4147206861736e2774207265676973746572656420796574000000000000000081525060200191505060405180910390fd5b6000600260003373ffffffffffffffffffffffffffffffffffffffff1673ffffffffffffffffffffffffffffffffffffffff16815260200190815260200160002060000160008573ffffffffffffffffffffffffffffffffffffffff1673ffffffffffffffffffffffffffffffffffffffff16815260200190815260200160002060006101000a81548160ff0219169083151502179055506000600260003373ffffffffffffffffffffffffffffffffffffffff1673ffffffffffffffffffffffffffffffffffffffff16815260200190815260200160002060010180549050905060005b818110156111b0578473ffffffffffffffffffffffffffffffffffffffff16600260003373ffffffffffffffffffffffffffffffffffffffff1673ffffffffffffffffffffffffffffffffffffffff1681526020019081526020016000206001018281548110610f3157fe5b9060005260206000200160009054906101000a900473ffffffffffffffffffffffffffffffffffffffff1673ffffffffffffffffffffffffffffffffffffffff1614156111a3576000600260003373ffffffffffffffffffffffffffffffffffffffff1673ffffffffffffffffffffffffffffffffffffffff1681526020019081526020016000206001018281548110610fc757fe5b9060005260206000200160009054906101000a900473ffffffffffffffffffffffffffffffffffffffff169050600260003373ffffffffffffffffffffffffffffffffffffffff1673ffffffffffffffffffffffffffffffffffffffff168152602001908152602001600020600101600184038154811061104457fe5b9060005260206000200160009054906101000a900473ffffffffffffffffffffffffffffffffffffffff16600260003373ffffffffffffffffffffffffffffffffffffffff1673ffffffffffffffffffffffffffffffffffffffff16815260200190815260200160002060010183815481106110bc57fe5b9060005260206000200160006101000a81548173ffffffffffffffffffffffffffffffffffffffff021916908373ffffffffffffffffffffffffffffffffffffffff16021790555080600260003373ffffffffffffffffffffffffffffffffffffffff1673ffffffffffffffffffffffffffffffffffffffff168152602001908152602001600020600101600185038154811061115557fe5b9060005260206000200160006101000a81548173ffffffffffffffffffffffffffffffffffffffff021916908373ffffffffffffffffffffffffffffffffffffffff160217905550506111b0565b8080600101915050610ec5565b50600260003373ffffffffffffffffffffffffffffffffffffffff1673ffffffffffffffffffffffffffffffffffffffff1681526020019081526020016000206001018054806111fc57fe5b6001900381819060005260206000200160006101000a81549073ffffffffffffffffffffffffffffffffffffffff02191690559055600192505050919050565b600080600260008473ffffffffffffffffffffffffffffffffffffffff1673ffffffffffffffffffffffffffffffffffffffff16815260200190815260200160002060040154600260008573ffffffffffffffffffffffffffffffffffffffff1673ffffffffffffffffffffffffffffffffffffffff1681526020019081526020016000206005015491509150915091565b828054600181600116156101000203166002900490600052602060002090601f016020900481019282601f1061130f57805160ff191683800117855561133d565b8280016001018555821561133d579182015b8281111561133c578251825591602001919060010190611321565b5b50905061134a919061134e565b5090565b61137091905b8082111561136c576000816000905550600101611354565b5090565b9056fea265627a7a72315820369798489e7acec64facea808e61e8b48243244e840f8e9d85468ad11bac893764736f6c63430005110032",
  "source": "// SPDX-License-Identifier: MIT\npragma solidity <0.6.0;\n\ncontract RecordContract {\n\n    modifier onlyOwner(){\n        require(owner == msg.sender, \"CA authenication failed\");\n        _;\n    }\n    modifier onlyAG(address _AG){\n        require(isAGExist(_AG), \"AG hasn't registered yet\");\n        _;\n    }\n\n\n\n    address public owner;\n    address[] public agList; // 記錄所有AG位位址\n    mapping(address=>AG) public agStructList; // 紀錄各個AG資訊\n    mapping(address => bool) public agExistList;  // 紀錄AG是否存在\n\n\n    constructor() public {\n        owner = msg.sender;\n    }\n\n    struct AG{\n        mapping(address => bool)clientExistList;\n        address[] clientList;\n        address selfAddress;\n        string domain;\n        uint256 Knx;\n        uint256 Kny;\n    }\n\n    // check if AG exists in CA\n    function isAGExist(address _AG) public view returns(bool) {\n        return agExistList[_AG];\n    }\n\n    // 取得AG公鑰\n    function getAGPublicKey(address _AG) public view returns(uint256, uint256){\n        return (agStructList[_AG].Knx, agStructList[_AG].Kny);\n    }\n    \n    // 登記 AG 由CA負責登記\n    function registerAG(address _AG, string memory domain, uint256 _Knx, uint256 _Kny) public onlyOwner returns(bool){\n        agStructList[_AG].selfAddress = _AG;\n        agStructList[_AG].domain = domain;\n        agStructList[_AG].Knx = _Knx;\n        agStructList[_AG].Kny = _Kny;\n\n\n        agList.push(_AG);\n        agExistList[_AG]=true;\n\n        return true;\n    }\n\n\n    // AG登記Client 由AG自行登記\n    function registerClient(address client) public onlyAG(msg.sender) returns(bool){\n        //\n        agStructList[msg.sender].clientExistList[client] = true;\n        agStructList[msg.sender].clientList.push(client);\n        return true;\n    }\n\n\n    // 透過Client address 找尋 AG， 由發送方的AG執行\n    function findAGviaAddress(address client) public view returns(address) {\n        //\n        for(uint i=0;i<agList.length;i++) {\n            if(agStructList[agList[i]].clientExistList[client])\n                return agList[i];\n        }\n        return address(0);\n    }\n\n    function removeClient(address client) public onlyAG(msg.sender) returns(bool){\n        // 設定為否\n        agStructList[msg.sender].clientExistList[client] = false;\n\n        uint arrayLen = agStructList[msg.sender].clientList.length;\n        // 找此用戶在陣列中的index\n        // 把最後一項與曜刪除的那一項對調後再做pop\n        for (uint i; i<arrayLen; i++){\n            if (agStructList[msg.sender].clientList[i] == client){\n                address tmp = agStructList[msg.sender].clientList[i];\n                agStructList[msg.sender].clientList[i] = agStructList[msg.sender].clientList[arrayLen-1];\n                agStructList[msg.sender].clientList[arrayLen-1] = tmp;\n                break;\n            }\n        }\n        agStructList[msg.sender].clientList.pop();\n\n\n        return true;\n    }\n}\n",
  "sourcePath": "/home/james/gethLab/Recordcontract/contracts/RecordContract.sol",
  "compiler": {
    "name": "solc",
    "version": "0.5.17+commit.d19bba13.Emscripten.clang"
  },
  "schemaVersion": "3.4.3",
  "updatedAt": "2022-02-15T15:41:59.819Z",
  "devdoc": {
    "methods": {}
  },
  "userdoc": {
    "methods": {}
  }
}