{
  "contractName": "TransferContract",
  "abi": [
    {
      "inputs": [
        {
          "internalType": "address",
          "name": "_senderAG",
          "type": "address"
        },
        {
          "internalType": "address",
          "name": "_receiverAG",
          "type": "address"
        },
        {
          "internalType": "address",
          "name": "_sender",
          "type": "address"
        },
        {
          "internalType": "address",
          "name": "_receiver",
          "type": "address"
        }
      ],
      "stateMutability": "nonpayable",
      "type": "constructor"
    },
    {
      "inputs": [],
      "name": "getAG",
      "outputs": [
        {
          "internalType": "address",
          "name": "",
          "type": "address"
        },
        {
          "internalType": "address",
          "name": "",
          "type": "address"
        }
      ],
      "stateMutability": "view",
      "type": "function"
    },
    {
      "inputs": [
        {
          "internalType": "bool",
          "name": "status",
          "type": "bool"
        }
      ],
      "name": "setAgreement",
      "outputs": [],
      "stateMutability": "nonpayable",
      "type": "function"
    },
    {
      "inputs": [
        {
          "internalType": "address",
          "name": "_from",
          "type": "address"
        },
        {
          "internalType": "address",
          "name": "_to",
          "type": "address"
        },
        {
          "internalType": "uint256",
          "name": "balance",
          "type": "uint256"
        },
        {
          "internalType": "uint256",
          "name": "signature",
          "type": "uint256"
        }
      ],
      "name": "createTransaction",
      "outputs": [
        {
          "internalType": "bool",
          "name": "",
          "type": "bool"
        }
      ],
      "stateMutability": "nonpayable",
      "type": "function"
    },
    {
      "inputs": [
        {
          "internalType": "address",
          "name": "_from",
          "type": "address"
        },
        {
          "internalType": "address",
          "name": "_to",
          "type": "address"
        },
        {
          "internalType": "uint256",
          "name": "_balance",
          "type": "uint256"
        },
        {
          "internalType": "uint256",
          "name": "signature",
          "type": "uint256"
        }
      ],
      "name": "Payment",
      "outputs": [
        {
          "internalType": "bool",
          "name": "",
          "type": "bool"
        }
      ],
      "stateMutability": "nonpayable",
      "type": "function"
    },
    {
      "inputs": [
        {
          "internalType": "address",
          "name": "_from",
          "type": "address"
        },
        {
          "internalType": "address",
          "name": "_to",
          "type": "address"
        }
      ],
      "name": "closeTransaction",
      "outputs": [
        {
          "internalType": "bool",
          "name": "",
          "type": "bool"
        }
      ],
      "stateMutability": "nonpayable",
      "type": "function"
    }
  ],
  "bytecode": "0x608060405234801561001057600080fd5b506040516112e03803806112e08339818101604052608081101561003357600080fd5b8101908080519060200190929190805190602001909291908051906020019092919080519060200190929190505050336000806101000a81548173ffffffffffffffffffffffffffffffffffffffff021916908373ffffffffffffffffffffffffffffffffffffffff16021790555083600160006101000a81548173ffffffffffffffffffffffffffffffffffffffff021916908373ffffffffffffffffffffffffffffffffffffffff16021790555082600260006101000a81548173ffffffffffffffffffffffffffffffffffffffff021916908373ffffffffffffffffffffffffffffffffffffffff16021790555081600460006101000a81548173ffffffffffffffffffffffffffffffffffffffff021916908373ffffffffffffffffffffffffffffffffffffffff16021790555080600360006101000a81548173ffffffffffffffffffffffffffffffffffffffff021916908373ffffffffffffffffffffffffffffffffffffffff160217905550600060056000600160009054906101000a900473ffffffffffffffffffffffffffffffffffffffff1673ffffffffffffffffffffffffffffffffffffffff1673ffffffffffffffffffffffffffffffffffffffff16815260200190815260200160002060006101000a81548160ff021916908315150217905550600060056000600260009054906101000a900473ffffffffffffffffffffffffffffffffffffffff1673ffffffffffffffffffffffffffffffffffffffff1673ffffffffffffffffffffffffffffffffffffffff16815260200190815260200160002060006101000a81548160ff0219169083151502179055506000600881905550600060068190555060006007819055505050505061101b806102c56000396000f3fe608060405234801561001057600080fd5b50600436106100575760003560e01c806310258bfd1461005c578063bde06e47146100ea578063deb3eca71461011a578063e3a63184146101a8578063f5389fe4146101f9575b600080fd5b6100d26004803603608081101561007257600080fd5b81019080803573ffffffffffffffffffffffffffffffffffffffff169060200190929190803573ffffffffffffffffffffffffffffffffffffffff1690602001909291908035906020019092919080359060200190929190505050610273565b60405180821515815260200191505060405180910390f35b6101186004803603602081101561010057600080fd5b81019080803515159060200190929190505050610838565b005b6101906004803603608081101561013057600080fd5b81019080803573ffffffffffffffffffffffffffffffffffffffff169060200190929190803573ffffffffffffffffffffffffffffffffffffffff16906020019092919080359060200190929190803590602001909291905050506109ad565b60405180821515815260200191505060405180910390f35b6101b0610bf2565b604051808373ffffffffffffffffffffffffffffffffffffffff1681526020018273ffffffffffffffffffffffffffffffffffffffff1681526020019250505060405180910390f35b61025b6004803603604081101561020f57600080fd5b81019080803573ffffffffffffffffffffffffffffffffffffffff169060200190929190803573ffffffffffffffffffffffffffffffffffffffff169060200190929190505050610c43565b60405180821515815260200191505060405180910390f35b6000600160009054906101000a900473ffffffffffffffffffffffffffffffffffffffff1673ffffffffffffffffffffffffffffffffffffffff163373ffffffffffffffffffffffffffffffffffffffff16148061031e5750600260009054906101000a900473ffffffffffffffffffffffffffffffffffffffff1673ffffffffffffffffffffffffffffffffffffffff163373ffffffffffffffffffffffffffffffffffffffff16145b610390576040517f08c379a00000000000000000000000000000000000000000000000000000000081526004018080602001828103825260188152602001807f41472041757468656e7469636174696f6e206661696c6564000000000000000081525060200191505060405180910390fd5b6000151560056000600160009054906101000a900473ffffffffffffffffffffffffffffffffffffffff1673ffffffffffffffffffffffffffffffffffffffff1673ffffffffffffffffffffffffffffffffffffffff16815260200190815260200160002060009054906101000a900460ff16151514610478576040517f08c379a000000000000000000000000000000000000000000000000000000000815260040180806020018281038252601b8152602001807f53656e6465722041472068617665206e6f2061677265656d656e74000000000081525060200191505060405180910390fd5b6000151560056000600260009054906101000a900473ffffffffffffffffffffffffffffffffffffffff1673ffffffffffffffffffffffffffffffffffffffff1673ffffffffffffffffffffffffffffffffffffffff16815260200190815260200160002060009054906101000a900460ff16151514610560576040517f08c379a000000000000000000000000000000000000000000000000000000000815260040180806020018281038252601d8152602001807f52656365697665722041472068617665206e6f2061677265656d656e7400000081525060200191505060405180910390fd5b848484600460009054906101000a900473ffffffffffffffffffffffffffffffffffffffff1673ffffffffffffffffffffffffffffffffffffffff168373ffffffffffffffffffffffffffffffffffffffff1614801561060d5750600360009054906101000a900473ffffffffffffffffffffffffffffffffffffffff1673ffffffffffffffffffffffffffffffffffffffff168273ffffffffffffffffffffffffffffffffffffffff16145b801561061b57506007548111155b61068d576040517f08c379a000000000000000000000000000000000000000000000000000000000815260040180806020018281038252601f8152602001807f7061796d656e7452657175697265206973206e6f74207361746973666965640081525060200191505060405180910390fd5b600754600654014714156106ec576040517f08c379a000000000000000000000000000000000000000000000000000000000815260040180806020018281038252602d815260200180610fb9602d913960400191505060405180910390fd5b85600660008282540392505081905550856007600082825401925050819055506009859080600181540180825580915050600190039060005260206000200160009091909190915055600060056000600160009054906101000a900473ffffffffffffffffffffffffffffffffffffffff1673ffffffffffffffffffffffffffffffffffffffff1673ffffffffffffffffffffffffffffffffffffffff16815260200190815260200160002060006101000a81548160ff021916908315150217905550600060056000600260009054906101000a900473ffffffffffffffffffffffffffffffffffffffff1673ffffffffffffffffffffffffffffffffffffffff1673ffffffffffffffffffffffffffffffffffffffff16815260200190815260200160002060006101000a81548160ff02191690831515021790555060019350505050949350505050565b600160009054906101000a900473ffffffffffffffffffffffffffffffffffffffff1673ffffffffffffffffffffffffffffffffffffffff163373ffffffffffffffffffffffffffffffffffffffff1614806108e15750600260009054906101000a900473ffffffffffffffffffffffffffffffffffffffff1673ffffffffffffffffffffffffffffffffffffffff163373ffffffffffffffffffffffffffffffffffffffff16145b610953576040517f08c379a00000000000000000000000000000000000000000000000000000000081526004018080602001828103825260188152602001807f41472041757468656e7469636174696f6e206661696c6564000000000000000081525060200191505060405180910390fd5b80600560003373ffffffffffffffffffffffffffffffffffffffff1673ffffffffffffffffffffffffffffffffffffffff16815260200190815260200160002060006101000a81548160ff02191690831515021790555050565b60008060009054906101000a900473ffffffffffffffffffffffffffffffffffffffff1673ffffffffffffffffffffffffffffffffffffffff163373ffffffffffffffffffffffffffffffffffffffff1614610a71576040517f08c379a00000000000000000000000000000000000000000000000000000000081526004018080602001828103825260188152602001807f43412041757468656e7469636174696f6e206661696c6564000000000000000081525060200191505060405180910390fd5b600160009054906101000a900473ffffffffffffffffffffffffffffffffffffffff1673ffffffffffffffffffffffffffffffffffffffff163373ffffffffffffffffffffffffffffffffffffffff1614610b34576040517f08c379a000000000000000000000000000000000000000000000000000000000815260040180806020018281038252601a8152602001807f6f6e6c792073656e646572414720697320737570706f7274656400000000000081525060200191505060405180910390fd5b84600460006101000a81548173ffffffffffffffffffffffffffffffffffffffff021916908373ffffffffffffffffffffffffffffffffffffffff16021790555083600360006101000a81548173ffffffffffffffffffffffffffffffffffffffff021916908373ffffffffffffffffffffffffffffffffffffffff16021790555082600681905550600982908060018154018082558091505060019003906000526020600020016000909190919091505560019050949350505050565b600080600160009054906101000a900473ffffffffffffffffffffffffffffffffffffffff16600260009054906101000a900473ffffffffffffffffffffffffffffffffffffffff16915091509091565b60008060009054906101000a900473ffffffffffffffffffffffffffffffffffffffff1673ffffffffffffffffffffffffffffffffffffffff163373ffffffffffffffffffffffffffffffffffffffff1614610d07576040517f08c379a00000000000000000000000000000000000000000000000000000000081526004018080602001828103825260188152602001807f43412041757468656e7469636174696f6e206661696c6564000000000000000081525060200191505060405180910390fd5b6000151560056000600160009054906101000a900473ffffffffffffffffffffffffffffffffffffffff1673ffffffffffffffffffffffffffffffffffffffff1673ffffffffffffffffffffffffffffffffffffffff16815260200190815260200160002060009054906101000a900460ff16151514610def576040517f08c379a000000000000000000000000000000000000000000000000000000000815260040180806020018281038252601b8152602001807f53656e6465722041472068617665206e6f2061677265656d656e74000000000081525060200191505060405180910390fd5b6000151560056000600260009054906101000a900473ffffffffffffffffffffffffffffffffffffffff1673ffffffffffffffffffffffffffffffffffffffff1673ffffffffffffffffffffffffffffffffffffffff16815260200190815260200160002060009054906101000a900460ff16151514610ed7576040517f08c379a000000000000000000000000000000000000000000000000000000000815260040180806020018281038252601d8152602001807f52656365697665722041472068617665206e6f2061677265656d656e7400000081525060200191505060405180910390fd5b6000839050600083905060006006541115610f36578173ffffffffffffffffffffffffffffffffffffffff166108fc6006549081150290604051600060405180830381858888f19350505050158015610f34573d6000803e3d6000fd5b505b8073ffffffffffffffffffffffffffffffffffffffff166108fc6007549081150290604051600060405180830381858888f19350505050158015610f7e573d6000803e3d6000fd5b5060008054906101000a900473ffffffffffffffffffffffffffffffffffffffff1673ffffffffffffffffffffffffffffffffffffffff16fffe53656e646572206861736e27742070617920616e792062616c616e636520746f20636f6e747261637420796574a26469706673582212209c2bd0351f8f73171c1502fa96a9bee2583ccccdae916cb8ec9349349b17567764736f6c634300060c0033",
  "immutableReferences": {},
  "source": "// SPDX-License-Identifier: MIT\npragma solidity <0.7.0;\n\ncontract TransferContract {\n\n    address owner; \n    address senderAG; \n    address receiverAG;\n    address receiver;\n    address sender;\n\n      // 登記雙方AG的意見\n    mapping(address=>bool) agreements;\n    \n      // 本次交易總金額\n    uint256 totalAmount;\n      // 交易目前餘額\n    uint256 currentAmount;\n\n      // 後續扣款的次數\n    uint256 step;\n      \n      //  交易雜湊的陣列\n    uint256[] transactionSignature;\n        \n\n  // 設定合約初始化\n    constructor(address _senderAG, address _receiverAG, address _sender, address _receiver) public {\n        owner = msg.sender;\n        senderAG = _senderAG;\n        receiverAG = _receiverAG;\n        sender = _sender;\n        receiver = _receiver;\n\n        agreements[senderAG] = false;\n        agreements[receiverAG] = false;\n        \n        step=0;\n        totalAmount=0;\n        currentAmount=0;\n    }\n\n\n      // 設定函數條件\n    modifier onlyCA{\n        require(msg.sender == owner, \"CA Authentication failed\");\n        _;\n    }\n\n    modifier onlyAG{\n        require(msg.sender == senderAG || msg.sender == receiverAG , \"AG Authentication failed\");\n        _;\n    }\n        \n    modifier agreementAG{\n        require(agreements[senderAG]==false, \"Sender AG have no agreement\");\n        require(agreements[receiverAG]==false, \"Receiver AG have no agreement\");\n        _;\n    }\n  \n    modifier paymentRequire(address _from, address _to, uint256 _balance){\n        require(_from == sender && _to ==receiver && _balance<=currentAmount, \"paymentRequire is not satisfied\");\n        _;\n    }\n\n// 可用函數\n          \n/*\n      function setAG(address _AG1, address _AG2) public onlyCA {\n          // 設定AG\n          senderAG = _AG1;\n          receiverAG = _AG2;\n\n          agreements[senderAG] = false;\n          agreements[receiverAG] = false;\n      }\n */   \n        function getAG() public view returns(address, address){ \n          // 取得AG \n              return (senderAG, receiverAG);\n        }\n\n      \n        function setAgreement(bool status) public onlyAG{\n            // 供AG設定其是否同意交易\n            agreements[msg.sender] = status;\n        }\n\n        function createTransaction(address _from, address _to, uint256 balance, uint256 signature) public onlyCA returns(bool){\n              // 開啟交易只需要CA同意即可\n            require(msg.sender == senderAG, \"only senderAG is supported\");\n            sender = _from;\n            receiver = _to;\n            totalAmount = balance;\n\n          // 這次交易最一開始的簽章\n            transactionSignature.push(signature);\n\n            return true;\n        }\n\n\n        function Payment(address _from, address _to, uint256 _balance, uint256 signature) public onlyAG agreementAG paymentRequire(_from,_to,_balance) returns(bool){\n            require(address(this).balance!=(totalAmount+currentAmount), \"Sender hasn't pay any balance to contract yet\");\n\n            totalAmount -= _balance; // 餘額\n            currentAmount += _balance; // 累積的費用\n            transactionSignature.push(signature);\n        \n           // 把 AG的agreement 改回 false\n            agreements[senderAG]=false;\n            agreements[receiverAG] =false;\n\n            return true;\n        }\n\n\n        function closeTransaction(address _from, address _to) public onlyCA agreementAG returns(bool){\n          // 關閉合約需要 CA，雙方AG同意才可    \n            address payable payfrom = payable(_from);\n            address payable payto = payable(_to);\n\n          // 歸還餘額給sender\n            if (totalAmount>0)\n                payfrom.transfer(totalAmount);\n\n          // 把目前累積的費用轉給 receiver\n            payto.transfer(currentAmount);\n            selfdestruct(payable(owner));\n            return true;//\n        }\n    \n  \n\n\n\n}\n",
  "sourcePath": "/home/james/gethLab/Transactioncontract/contracts/TransferContract.sol",
  "compiler": {
    "name": "solc",
    "version": "0.6.12+commit.27d51765.Emscripten.clang"
  },
  "schemaVersion": "3.4.3",
  "updatedAt": "2022-01-25T17:24:47.299Z",
  "devdoc": {
    "kind": "dev",
    "methods": {},
    "version": 1
  },
  "userdoc": {
    "kind": "user",
    "methods": {},
    "version": 1
  }
}