{
  "contractName": "TransferContract",
  "abi": [
    {
      "inputs": [],
      "payable": false,
      "stateMutability": "nonpayable",
      "type": "constructor"
    },
    {
      "constant": true,
      "inputs": [],
      "name": "getAGs",
      "outputs": [
        {
          "internalType": "address",
          "name": "",
          "type": "address"
        },
        {
          "internalType": "address",
          "name": "",
          "type": "address"
        }
      ],
      "payable": false,
      "stateMutability": "view",
      "type": "function"
    },
    {
      "constant": false,
      "inputs": [
        {
          "internalType": "address",
          "name": "sender",
          "type": "address"
        },
        {
          "internalType": "address",
          "name": "receiver",
          "type": "address"
        }
      ],
      "name": "setAGs",
      "outputs": [],
      "payable": false,
      "stateMutability": "nonpayable",
      "type": "function"
    },
    {
      "constant": false,
      "inputs": [
        {
          "internalType": "bool",
          "name": "status",
          "type": "bool"
        }
      ],
      "name": "setAgreements",
      "outputs": [
        {
          "internalType": "bool",
          "name": "",
          "type": "bool"
        }
      ],
      "payable": false,
      "stateMutability": "nonpayable",
      "type": "function"
    },
    {
      "constant": false,
      "inputs": [
        {
          "internalType": "address",
          "name": "_from",
          "type": "address"
        },
        {
          "internalType": "address",
          "name": "_to",
          "type": "address"
        },
        {
          "internalType": "uint256",
          "name": "balance",
          "type": "uint256"
        },
        {
          "internalType": "uint256",
          "name": "signature",
          "type": "uint256"
        }
      ],
      "name": "createTransaction",
      "outputs": [
        {
          "internalType": "bool",
          "name": "",
          "type": "bool"
        }
      ],
      "payable": false,
      "stateMutability": "nonpayable",
      "type": "function"
    },
    {
      "constant": false,
      "inputs": [
        {
          "internalType": "address",
          "name": "_from",
          "type": "address"
        },
        {
          "internalType": "address",
          "name": "_to",
          "type": "address"
        },
        {
          "internalType": "uint256",
          "name": "balance",
          "type": "uint256"
        }
      ],
      "name": "Payment",
      "outputs": [
        {
          "internalType": "bool",
          "name": "",
          "type": "bool"
        }
      ],
      "payable": false,
      "stateMutability": "nonpayable",
      "type": "function"
    },
    {
      "constant": true,
      "inputs": [],
      "name": "checkStep",
      "outputs": [
        {
          "internalType": "uint256",
          "name": "",
          "type": "uint256"
        }
      ],
      "payable": false,
      "stateMutability": "view",
      "type": "function"
    },
    {
      "constant": false,
      "inputs": [],
      "name": "endContract",
      "outputs": [],
      "payable": true,
      "stateMutability": "payable",
      "type": "function"
    }
  ],
  "bytecode": "0x608060405234801561001057600080fd5b50336000806101000a81548173ffffffffffffffffffffffffffffffffffffffff021916908373ffffffffffffffffffffffffffffffffffffffff160217905550604051806040016040528060001515151581526020016000151515158152506003906002610080929190610086565b5061014f565b826002601f0160209004810192821561010e5791602002820160005b838211156100df57835183826101000a81548160ff02191690831515021790555092602001926001016020816000010492830192600103026100a2565b801561010c5782816101000a81549060ff02191690556001016020816000010492830192600103026100df565b505b50905061011b919061011f565b5090565b61014c91905b8082111561014857600081816101000a81549060ff021916905550600101610125565b5090565b90565b61109c806200015f6000396000f3fe6080604052600436106100705760003560e01c8063bb6e7de91161004e578063bb6e7de914610188578063c796122714610192578063deb3eca714610203578063f8cb31f5146102a057610070565b80634ff3a538146100755780638ed7db30146100a0578063b644e93214610133575b600080fd5b34801561008157600080fd5b5061008a61032a565b6040518082815260200191505060405180910390f35b3480156100ac57600080fd5b50610119600480360360608110156100c357600080fd5b81019080803573ffffffffffffffffffffffffffffffffffffffff169060200190929190803573ffffffffffffffffffffffffffffffffffffffff16906020019092919080359060200190929190505050610347565b604051808215151515815260200191505060405180910390f35b34801561013f57600080fd5b5061016e6004803603602081101561015657600080fd5b810190808035151590602001909291905050506107c3565b604051808215151515815260200191505060405180910390f35b610190610940565b005b34801561019e57600080fd5b50610201600480360360408110156101b557600080fd5b81019080803573ffffffffffffffffffffffffffffffffffffffff169060200190929190803573ffffffffffffffffffffffffffffffffffffffff169060200190929190505050610bb1565b005b34801561020f57600080fd5b506102866004803603608081101561022657600080fd5b81019080803573ffffffffffffffffffffffffffffffffffffffff169060200190929190803573ffffffffffffffffffffffffffffffffffffffff1690602001909291908035906020019092919080359060200190929190505050610cf9565b604051808215151515815260200191505060405180910390f35b3480156102ac57600080fd5b506102b5610f1c565b604051808373ffffffffffffffffffffffffffffffffffffffff1673ffffffffffffffffffffffffffffffffffffffff1681526020018273ffffffffffffffffffffffffffffffffffffffff1673ffffffffffffffffffffffffffffffffffffffff1681526020019250505060405180910390f35b60006004600f0160009054906101000a900460ff1660ff16905090565b600060011515600360006002811061035b57fe5b602091828204019190069054906101000a900460ff161515146103e6576040517f08c379a000000000000000000000000000000000000000000000000000000000815260040180806020018281038252601c8152602001807f53656e64657220414720686173206e6f7420616772656564207965740000000081525060200191505060405180910390fd5b6001151560036001600281106103f857fe5b602091828204019190069054906101000a900460ff16151514610483576040517f08c379a000000000000000000000000000000000000000000000000000000000815260040180806020018281038252601e8152602001807f526563656976657220414720686173206e6f742061677265656420796574000081525060200191505060405180910390fd5b8383600160009054906101000a900473ffffffffffffffffffffffffffffffffffffffff1673ffffffffffffffffffffffffffffffffffffffff163373ffffffffffffffffffffffffffffffffffffffff1614610548576040517f08c379a00000000000000000000000000000000000000000000000000000000081526004018080602001828103825260178152602001807f73656e64657220414720616464726573732077726f6e6700000000000000000081525060200191505060405180910390fd5b600460000160009054906101000a900473ffffffffffffffffffffffffffffffffffffffff1673ffffffffffffffffffffffffffffffffffffffff168273ffffffffffffffffffffffffffffffffffffffff161461060e576040517f08c379a00000000000000000000000000000000000000000000000000000000081526004018080602001828103825260158152602001807f2053656e64657220616464726573732077726f6e67000000000000000000000081525060200191505060405180910390fd5b600460010160009054906101000a900473ffffffffffffffffffffffffffffffffffffffff1673ffffffffffffffffffffffffffffffffffffffff168173ffffffffffffffffffffffffffffffffffffffff16146106d4576040517f08c379a00000000000000000000000000000000000000000000000000000000081526004018080602001828103825260168152602001807f526563656976657220616464726573732077726f6e670000000000000000000081525060200191505060405180910390fd5b600a6004600f0160009054906101000a900460ff1660ff161061075f576040517f08c379a00000000000000000000000000000000000000000000000000000000081526004018080602001828103825260148152602001807f737465702069732065786363656420746f20313000000000000000000000000081525060200191505060405180910390fd5b836004600201600082825403925050819055508360046003016000828254019250508190555060016004600f0160008282829054906101000a900460ff160192506101000a81548160ff021916908360ff1602179055506001925050509392505050565b6000600160009054906101000a900473ffffffffffffffffffffffffffffffffffffffff1673ffffffffffffffffffffffffffffffffffffffff163373ffffffffffffffffffffffffffffffffffffffff161415806108705750600260009054906101000a900473ffffffffffffffffffffffffffffffffffffffff1673ffffffffffffffffffffffffffffffffffffffff163373ffffffffffffffffffffffffffffffffffffffff1614155b1561087e576000905061093b565b600160009054906101000a900473ffffffffffffffffffffffffffffffffffffffff1673ffffffffffffffffffffffffffffffffffffffff163373ffffffffffffffffffffffffffffffffffffffff161415610907578160036000600281106108e357fe5b602091828204019190066101000a81548160ff021916908315150217905550610936565b81600360016002811061091657fe5b602091828204019190066101000a81548160ff0219169083151502179055505b600190505b919050565b6000809054906101000a900473ffffffffffffffffffffffffffffffffffffffff1673ffffffffffffffffffffffffffffffffffffffff163373ffffffffffffffffffffffffffffffffffffffff1614610a02576040517f08c379a00000000000000000000000000000000000000000000000000000000081526004018080602001828103825260188152602001807f43412041757468656e7469636174696f6e206661696c6564000000000000000081525060200191505060405180910390fd5b6000600460000160009054906101000a900473ffffffffffffffffffffffffffffffffffffffff1690506000600460010160009054906101000a900473ffffffffffffffffffffffffffffffffffffffff1690508173ffffffffffffffffffffffffffffffffffffffff166108fc6004600201549081150290604051600060405180830381858888f19350505050158015610aa1573d6000803e3d6000fd5b508073ffffffffffffffffffffffffffffffffffffffff166108fc6004600301549081150290604051600060405180830381858888f19350505050158015610aed573d6000803e3d6000fd5b50600030905060008060009054906101000a900473ffffffffffffffffffffffffffffffffffffffff16905060008273ffffffffffffffffffffffffffffffffffffffff16311115610b98578073ffffffffffffffffffffffffffffffffffffffff166108fc8373ffffffffffffffffffffffffffffffffffffffff16319081150290604051600060405180830381858888f19350505050158015610b96573d6000803e3d6000fd5b505b8073ffffffffffffffffffffffffffffffffffffffff16ff5b6000809054906101000a900473ffffffffffffffffffffffffffffffffffffffff1673ffffffffffffffffffffffffffffffffffffffff163373ffffffffffffffffffffffffffffffffffffffff1614610c73576040517f08c379a00000000000000000000000000000000000000000000000000000000081526004018080602001828103825260188152602001807f43412041757468656e7469636174696f6e206661696c6564000000000000000081525060200191505060405180910390fd5b81600160006101000a81548173ffffffffffffffffffffffffffffffffffffffff021916908373ffffffffffffffffffffffffffffffffffffffff16021790555080600260006101000a81548173ffffffffffffffffffffffffffffffffffffffff021916908373ffffffffffffffffffffffffffffffffffffffff1602179055505050565b6000610d03610f6d565b85816000019073ffffffffffffffffffffffffffffffffffffffff16908173ffffffffffffffffffffffffffffffffffffffff168152505084816020019073ffffffffffffffffffffffffffffffffffffffff16908173ffffffffffffffffffffffffffffffffffffffff16815250508381608001818152505083816040018181525050600081606001818152505060008160c0019060ff16908160ff1681525050828160a001518260c0015160ff16600a8110610dbd57fe5b60200201818152505080600460008201518160000160006101000a81548173ffffffffffffffffffffffffffffffffffffffff021916908373ffffffffffffffffffffffffffffffffffffffff16021790555060208201518160010160006101000a81548173ffffffffffffffffffffffffffffffffffffffff021916908373ffffffffffffffffffffffffffffffffffffffff16021790555060408201518160020155606082015181600301556080820151816004015560a08201518160050190600a610e8c929190610fdf565b5060c082015181600f0160006101000a81548160ff021916908360ff16021790555090505060006003600060028110610ec157fe5b602091828204019190066101000a81548160ff02191690831515021790555060006003600160028110610ef057fe5b602091828204019190066101000a81548160ff0219169083151502179055506001915050949350505050565b600080600160009054906101000a900473ffffffffffffffffffffffffffffffffffffffff16600260009054906101000a900473ffffffffffffffffffffffffffffffffffffffff16915091509091565b6040518060e00160405280600073ffffffffffffffffffffffffffffffffffffffff168152602001600073ffffffffffffffffffffffffffffffffffffffff168152602001600081526020016000815260200160008152602001610fcf61101f565b8152602001600060ff1681525090565b82600a810192821561100e579160200282015b8281111561100d578251825591602001919060010190610ff2565b5b50905061101b9190611042565b5090565b604051806101400160405280600a90602082028038833980820191505090505090565b61106491905b80821115611060576000816000905550600101611048565b5090565b9056fea265627a7a7231582048884cfd21d034ddef10fdd1301d2d211692bba1ca72d79c077dc0eae0c151b364736f6c63430005100032",
  "source": "// SPDX-License-Identifier: MIT\npragma solidity >=0.4.22 <0.9.0;\n\ncontract TransferContract {\n\n  address owner;\n  address senderAG;\n  address receiverAG;\n  // 用來登記雙方AG的同意\n  bool[2] AGs_Agreements; // 0:sender, 1:receiver\n\n  constructor() public {\n    owner = msg.sender;     \n    AGs_Agreements = [false,false];\n  }\n  \n  \n  modifier onlyRecevierAG{\n      require(msg.sender == receiverAG, \"ReceiverAG address error\");\n      _;\n  }\n  modifier onlySenderAG{\n      require( msg.sender == senderAG , \"SenderAG address error\");\n      _;\n  }\n  modifier onlyOwner{\n    require(msg.sender == owner, \"CA Authentication failed\");\n    _;\n  }\n  modifier payRequirement(address from, address to){ \n    // check if from address right\n    // check if to address right\n    require(msg.sender == senderAG,\"sender AG address wrong\");\n    require(from == transaction.from, \" Sender address wrong\");\n    require(to == transaction.to, \"Receiver address wrong\");\n    _;\n  }\n  // 確保雙方AG都同意交易\n  modifier Agreements(){\n      require(AGs_Agreements[0]==true, \"Sender AG has not agreed yet\");\n      require(AGs_Agreements[1]==true, \"Receiver AG has not agreed yet\");\n      _;\n  }\n\n  struct Transaction{\n      address from; \n      address to;\n\n      uint256 FromBalance;\n      uint256 ToBalance;\n      uint256 TotalBalance;\n      \n      // 限制一定要在40個步驟內結束交易\n      uint256[10] txnHistory;\n      uint8 step; \n  }\n  \n  Transaction transaction;\n\n  // \n  function getAGs() public view returns (address, address){\n      return (senderAG, receiverAG);\n  }\n\n\n  // CA部屬後要設定AG\n  function setAGs(address sender, address receiver)public onlyOwner{\n      senderAG = sender;\n      receiverAG = receiver;\n  }\n  // AG status \n  function setAgreements(bool status)public returns(bool){\n      if(!(msg.sender==senderAG) || !(msg.sender==receiverAG)){\n          return false;\n      }\n      if(msg.sender == senderAG){\n          AGs_Agreements[0] =status;\n      }else{\n          AGs_Agreements[1]=status;\n      }\n      return true;\n  }\n\n  // 建立交易channel\n  function createTransaction(address _from, address _to, uint256 balance, uint256 signature) public returns(bool){\n        // Need modifier;\n        // 只有AG雙方同意才可以\n        \n        Transaction memory trans;\n        trans.from = _from;\n        trans.to = _to;\n        trans.TotalBalance = balance;\n        trans.FromBalance = balance;\n        trans.ToBalance = 0;\n        \n        trans.step = 0;\n        // save the chameleon signature\n        trans.txnHistory[trans.step]=signature;\n        \n\n        transaction = trans;\n\n\n        // 把AG們的同意改回false\n        AGs_Agreements[0]=false;\n        AGs_Agreements[1]=false;\n        return true; //\n\n  }\n\n    // 紀錄交易的每個步驟\n  function Payment(address _from, address _to, uint balance) public Agreements payRequirement(_from, _to) returns(bool){\n        // Need modifier;  \n        // AG雙方須同意\n        // 接收發送方及金額都需要與創建時一致\n        // step can not over 10  \n        require(transaction.step <10, \"step is excced to 10\");\n\n        transaction.FromBalance-=balance;\n        transaction.ToBalance+=balance;\n        transaction.step+=1; \n        return true;\n    }\n  \n    function checkStep() public view returns(uint){\n        return transaction.step;\n    }\n\n\n    // selfdestruct needs to be defined\n  function endContract() public onlyOwner payable{\n    \n    \n    address payable Payfrom = address(uint160(transaction.from));\n    address payable Payto = address(uint160(transaction.to));\n\n    Payfrom.transfer(transaction.FromBalance);\n    Payto.transfer(transaction.ToBalance);\n    \n    address conAddr = address(this);\n    \n    address payable PayOwner = address(uint160(owner));\n    if (conAddr.balance >0)\n        PayOwner.transfer( conAddr.balance);\n\n\n    selfdestruct(PayOwner);\n  }\n  \n\n}\n",
  "sourcePath": "/home/james/gethLab/contractWork/contracts/TransferContract.sol",
  "compiler": {
    "name": "solc",
    "version": "0.5.16+commit.9c3226ce.Emscripten.clang"
  },
  "schemaVersion": "3.4.3",
  "updatedAt": "2022-01-20T17:00:41.535Z",
  "devdoc": {
    "methods": {}
  },
  "userdoc": {
    "methods": {}
  }
}