{
  "contractName": "TransferContract",
  "abi": [
    {
      "inputs": [],
      "payable": false,
      "stateMutability": "nonpayable",
      "type": "constructor"
    },
    {
      "constant": false,
      "inputs": [
        {
          "internalType": "address",
          "name": "sender",
          "type": "address"
        },
        {
          "internalType": "address",
          "name": "receiver",
          "type": "address"
        }
      ],
      "name": "setAGs",
      "outputs": [],
      "payable": false,
      "stateMutability": "nonpayable",
      "type": "function"
    },
    {
      "constant": false,
      "inputs": [
        {
          "internalType": "bool",
          "name": "status",
          "type": "bool"
        }
      ],
      "name": "setAgreements",
      "outputs": [
        {
          "internalType": "bool",
          "name": "",
          "type": "bool"
        }
      ],
      "payable": false,
      "stateMutability": "nonpayable",
      "type": "function"
    },
    {
      "constant": false,
      "inputs": [
        {
          "internalType": "address",
          "name": "_from",
          "type": "address"
        },
        {
          "internalType": "address",
          "name": "_to",
          "type": "address"
        },
        {
          "internalType": "uint256",
          "name": "balance",
          "type": "uint256"
        },
        {
          "internalType": "uint256",
          "name": "signature",
          "type": "uint256"
        }
      ],
      "name": "createTransaction",
      "outputs": [
        {
          "internalType": "bool",
          "name": "",
          "type": "bool"
        }
      ],
      "payable": false,
      "stateMutability": "nonpayable",
      "type": "function"
    },
    {
      "constant": false,
      "inputs": [
        {
          "internalType": "address",
          "name": "_from",
          "type": "address"
        },
        {
          "internalType": "address",
          "name": "_to",
          "type": "address"
        },
        {
          "internalType": "uint256",
          "name": "balance",
          "type": "uint256"
        }
      ],
      "name": "Payment",
      "outputs": [
        {
          "internalType": "bool",
          "name": "",
          "type": "bool"
        }
      ],
      "payable": false,
      "stateMutability": "nonpayable",
      "type": "function"
    },
    {
      "constant": false,
      "inputs": [],
      "name": "endContract",
      "outputs": [],
      "payable": true,
      "stateMutability": "payable",
      "type": "function"
    }
  ],
  "bytecode": "0x608060405234801561001057600080fd5b50336000806101000a81548173ffffffffffffffffffffffffffffffffffffffff021916908373ffffffffffffffffffffffffffffffffffffffff160217905550604051806040016040528060001515151581526020016000151515158152506003906002610080929190610086565b5061014f565b826002601f0160209004810192821561010e5791602002820160005b838211156100df57835183826101000a81548160ff02191690831515021790555092602001926001016020816000010492830192600103026100a2565b801561010c5782816101000a81549060ff02191690556001016020816000010492830192600103026100df565b505b50905061011b919061011f565b5090565b61014c91905b8082111561014857600081816101000a81549060ff021916905550600101610125565b5090565b90565b610fcb8061015e6000396000f3fe60806040526004361061004a5760003560e01c80638ed7db301461004f578063b644e932146100e2578063bb6e7de914610137578063c796122714610141578063deb3eca7146101b2575b600080fd5b34801561005b57600080fd5b506100c86004803603606081101561007257600080fd5b81019080803573ffffffffffffffffffffffffffffffffffffffff169060200190929190803573ffffffffffffffffffffffffffffffffffffffff1690602001909291908035906020019092919050505061024f565b604051808215151515815260200191505060405180910390f35b3480156100ee57600080fd5b5061011d6004803603602081101561010557600080fd5b810190808035151590602001909291905050506106cb565b604051808215151515815260200191505060405180910390f35b61013f610848565b005b34801561014d57600080fd5b506101b06004803603604081101561016457600080fd5b81019080803573ffffffffffffffffffffffffffffffffffffffff169060200190929190803573ffffffffffffffffffffffffffffffffffffffff1690602001909291905050506109f7565b005b3480156101be57600080fd5b50610235600480360360808110156101d557600080fd5b81019080803573ffffffffffffffffffffffffffffffffffffffff169060200190929190803573ffffffffffffffffffffffffffffffffffffffff1690602001909291908035906020019092919080359060200190929190505050610b3f565b604051808215151515815260200191505060405180910390f35b600060011515600360006002811061026357fe5b602091828204019190069054906101000a900460ff161515146102ee576040517f08c379a000000000000000000000000000000000000000000000000000000000815260040180806020018281038252601c8152602001807f53656e64657220414720686173206e6f7420616772656564207965740000000081525060200191505060405180910390fd5b60011515600360016002811061030057fe5b602091828204019190069054906101000a900460ff1615151461038b576040517f08c379a000000000000000000000000000000000000000000000000000000000815260040180806020018281038252601e8152602001807f526563656976657220414720686173206e6f742061677265656420796574000081525060200191505060405180910390fd5b8383600160009054906101000a900473ffffffffffffffffffffffffffffffffffffffff1673ffffffffffffffffffffffffffffffffffffffff163373ffffffffffffffffffffffffffffffffffffffff1614610450576040517f08c379a00000000000000000000000000000000000000000000000000000000081526004018080602001828103825260178152602001807f73656e64657220414720616464726573732077726f6e6700000000000000000081525060200191505060405180910390fd5b600460000160009054906101000a900473ffffffffffffffffffffffffffffffffffffffff1673ffffffffffffffffffffffffffffffffffffffff168273ffffffffffffffffffffffffffffffffffffffff1614610516576040517f08c379a00000000000000000000000000000000000000000000000000000000081526004018080602001828103825260158152602001807f2053656e64657220616464726573732077726f6e67000000000000000000000081525060200191505060405180910390fd5b600460010160009054906101000a900473ffffffffffffffffffffffffffffffffffffffff1673ffffffffffffffffffffffffffffffffffffffff168173ffffffffffffffffffffffffffffffffffffffff16146105dc576040517f08c379a00000000000000000000000000000000000000000000000000000000081526004018080602001828103825260168152602001807f526563656976657220616464726573732077726f6e670000000000000000000081525060200191505060405180910390fd5b600a6004600f0160009054906101000a900460ff1660ff1610610667576040517f08c379a00000000000000000000000000000000000000000000000000000000081526004018080602001828103825260148152602001807f737465702069732065786363656420746f20313000000000000000000000000081525060200191505060405180910390fd5b836004600201600082825403925050819055508360046003016000828254019250508190555060016004600f0160008282829054906101000a900460ff160192506101000a81548160ff021916908360ff1602179055506001925050509392505050565b6000600160009054906101000a900473ffffffffffffffffffffffffffffffffffffffff1673ffffffffffffffffffffffffffffffffffffffff163373ffffffffffffffffffffffffffffffffffffffff161415806107785750600260009054906101000a900473ffffffffffffffffffffffffffffffffffffffff1673ffffffffffffffffffffffffffffffffffffffff163373ffffffffffffffffffffffffffffffffffffffff1614155b156107865760009050610843565b600160009054906101000a900473ffffffffffffffffffffffffffffffffffffffff1673ffffffffffffffffffffffffffffffffffffffff163373ffffffffffffffffffffffffffffffffffffffff16141561080f578160036000600281106107eb57fe5b602091828204019190066101000a81548160ff02191690831515021790555061083e565b81600360016002811061081e57fe5b602091828204019190066101000a81548160ff0219169083151502179055505b600190505b919050565b6000600460000160009054906101000a900473ffffffffffffffffffffffffffffffffffffffff1690506000600460010160009054906101000a900473ffffffffffffffffffffffffffffffffffffffff1690508173ffffffffffffffffffffffffffffffffffffffff166108fc6004600201549081150290604051600060405180830381858888f193505050501580156108e7573d6000803e3d6000fd5b508073ffffffffffffffffffffffffffffffffffffffff166108fc6004600301549081150290604051600060405180830381858888f19350505050158015610933573d6000803e3d6000fd5b50600030905060008060009054906101000a900473ffffffffffffffffffffffffffffffffffffffff16905060008273ffffffffffffffffffffffffffffffffffffffff163111156109de578073ffffffffffffffffffffffffffffffffffffffff166108fc8373ffffffffffffffffffffffffffffffffffffffff16319081150290604051600060405180830381858888f193505050501580156109dc573d6000803e3d6000fd5b505b8073ffffffffffffffffffffffffffffffffffffffff16ff5b6000809054906101000a900473ffffffffffffffffffffffffffffffffffffffff1673ffffffffffffffffffffffffffffffffffffffff163373ffffffffffffffffffffffffffffffffffffffff1614610ab9576040517f08c379a00000000000000000000000000000000000000000000000000000000081526004018080602001828103825260188152602001807f43412041757468656e7469636174696f6e206661696c6564000000000000000081525060200191505060405180910390fd5b81600160006101000a81548173ffffffffffffffffffffffffffffffffffffffff021916908373ffffffffffffffffffffffffffffffffffffffff16021790555080600260006101000a81548173ffffffffffffffffffffffffffffffffffffffff021916908373ffffffffffffffffffffffffffffffffffffffff1602179055505050565b6000600115156003600060028110610b5357fe5b602091828204019190069054906101000a900460ff16151514610bde576040517f08c379a000000000000000000000000000000000000000000000000000000000815260040180806020018281038252601c8152602001807f53656e64657220414720686173206e6f7420616772656564207965740000000081525060200191505060405180910390fd5b600115156003600160028110610bf057fe5b602091828204019190069054906101000a900460ff16151514610c7b576040517f08c379a000000000000000000000000000000000000000000000000000000000815260040180806020018281038252601e8152602001807f526563656976657220414720686173206e6f742061677265656420796574000081525060200191505060405180910390fd5b610c83610e9c565b85816000019073ffffffffffffffffffffffffffffffffffffffff16908173ffffffffffffffffffffffffffffffffffffffff168152505084816020019073ffffffffffffffffffffffffffffffffffffffff16908173ffffffffffffffffffffffffffffffffffffffff16815250508381608001818152505083816040018181525050600081606001818152505060008160c0019060ff16908160ff1681525050828160a001518260c0015160ff16600a8110610d3d57fe5b60200201818152505080600460008201518160000160006101000a81548173ffffffffffffffffffffffffffffffffffffffff021916908373ffffffffffffffffffffffffffffffffffffffff16021790555060208201518160010160006101000a81548173ffffffffffffffffffffffffffffffffffffffff021916908373ffffffffffffffffffffffffffffffffffffffff16021790555060408201518160020155606082015181600301556080820151816004015560a08201518160050190600a610e0c929190610f0e565b5060c082015181600f0160006101000a81548160ff021916908360ff16021790555090505060006003600060028110610e4157fe5b602091828204019190066101000a81548160ff02191690831515021790555060006003600160028110610e7057fe5b602091828204019190066101000a81548160ff0219169083151502179055506001915050949350505050565b6040518060e00160405280600073ffffffffffffffffffffffffffffffffffffffff168152602001600073ffffffffffffffffffffffffffffffffffffffff168152602001600081526020016000815260200160008152602001610efe610f4e565b8152602001600060ff1681525090565b82600a8101928215610f3d579160200282015b82811115610f3c578251825591602001919060010190610f21565b5b509050610f4a9190610f71565b5090565b604051806101400160405280600a90602082028038833980820191505090505090565b610f9391905b80821115610f8f576000816000905550600101610f77565b5090565b9056fea265627a7a72315820132ccbf9458b023975dfd0a3cf7e4f44e79b58021a8edeb47d5c7d5196ba9f8464736f6c63430005100032",
  "source": "// SPDX-License-Identifier: MIT\npragma solidity >=0.4.22 <0.9.0;\n\ncontract TransferContract {\n  \n  address owner;\n  address senderAG;\n  address receiverAG;\n  // 用來登記雙方AG的同意\n  bool[2] AGs_Agreements; // 0:sender, 1:receiver\n\n  constructor() public {\n    owner = msg.sender;     \n    AGs_Agreements = [false,false];\n  }\n  \n  \n  modifier onlyRecevierAG{\n      require(msg.sender == receiverAG, \"ReceiverAG address error\");\n      _;\n  }\n  modifier onlySenderAG{\n      require( msg.sender == senderAG , \"SenderAG address error\");\n      _;\n  }\n  modifier onlyOwner{\n    require(msg.sender == owner, \"CA Authentication failed\");\n    _;\n  }\n  modifier payRequirement(address from, address to){ \n    // check if from address right\n    // check if to address right\n    require(msg.sender == senderAG,\"sender AG address wrong\");\n    require(from == transaction.from, \" Sender address wrong\");\n    require(to == transaction.to, \"Receiver address wrong\");\n    _;\n  }\n  // 確保雙方AG都同意交易\n  modifier Agreements(){\n      require(AGs_Agreements[0]==true, \"Sender AG has not agreed yet\");\n      require(AGs_Agreements[1]==true, \"Receiver AG has not agreed yet\");\n      _;\n  }\n\n  struct Transaction{\n      address from; \n      address to;\n\n      uint256 FromBalance;\n      uint256 ToBalance;\n      uint256 TotalBalance;\n      \n      // 限制一定要在40個步驟內結束交易\n      uint256[10] txnHistory;\n      uint8 step; \n  }\n  \n  Transaction transaction;\n\n  // CA部屬後要設定AG\n  function setAGs(address sender, address receiver)public onlyOwner{\n      senderAG = sender;\n      receiverAG = receiver;\n  }\n  // AG status \n  function setAgreements(bool status)public returns(bool){\n      if(!(msg.sender==senderAG) || !(msg.sender==receiverAG)){\n          return false;\n      }\n      if(msg.sender == senderAG){\n          AGs_Agreements[0] =status;\n      }else{\n          AGs_Agreements[1]=status;\n      }\n      return true;\n  }\n\n  // 建立交易channel\n  function createTransaction(address _from, address _to, uint256 balance, uint256 signature) public Agreements returns(bool){\n        // Need modifier;\n        // 只有AG雙方同意才可以\n        \n        Transaction memory trans;\n        trans.from = _from;\n        trans.to = _to;\n        trans.TotalBalance = balance;\n        trans.FromBalance = balance;\n        trans.ToBalance = 0;\n        \n        trans.step = 0;\n        // save the chameleon signature\n        trans.txnHistory[trans.step]=signature;\n        \n\n        transaction = trans;\n\n\n        // 把AG們的同意改回false\n        AGs_Agreements[0]=false;\n        AGs_Agreements[1]=false;\n        return true; //\n\n  }\n\n  // 紀錄交易的每個步驟\n  function Payment(address _from, address _to, uint balance) public Agreements payRequirement(_from, _to) returns(bool){\n        // Need modifier;\n        // AG雙方須同意\n        // 接收發送方及金額都需要與創建時一致\n\n        // step can not over 10  \n        require(transaction.step <10, \"step is excced to 10\");\n\n        transaction.FromBalance-=balance;\n        transaction.ToBalance+=balance;\n        transaction.step+=1; \n        return true;\n  }\n  \n  // selfdestruct needs to be defined\n  function endContract() public payable{\n    \n\n\n    address payable Payfrom = address(uint160(transaction.from));\n    address payable Payto = address(uint160(transaction.to));\n\n    Payfrom.transfer(transaction.FromBalance);\n    Payto.transfer(transaction.ToBalance);\n    \n    address conAddr = address(this);\n    \n    address payable PayOwner = address(uint160(owner));\n    if (conAddr.balance >0)\n        PayOwner.transfer( conAddr.balance);\n\n\n    selfdestruct(PayOwner);\n    \n  }\n  \n\n}\n",
  "sourcePath": "/home/james/gethLab/contractWork/contracts/TransferContract.sol",
  "compiler": {
    "name": "solc",
    "version": "0.5.16+commit.9c3226ce.Emscripten.clang"
  },
  "schemaVersion": "3.4.3",
  "updatedAt": "2022-01-06T12:35:49.549Z",
  "networkType": "ethereum",
  "devdoc": {
    "methods": {}
  },
  "userdoc": {
    "methods": {}
  }
}